:020000040800F2
:100000000020002085010008890100088B010008FC
:1000100000000000000000000000000000000000E0
:10002000000000000000000000000000A501000822
:100030000000000000000000A70100083D070008C4
:100040004102000841020008410200084102000884
:1000500041020008CD0600084102000841020008E4
:1000600041020008010600084102000841020008A0
:10007000750600084102000841020008410200081C
:10008000410200084102000800000000410200088F
:100090004102000841020008410200084102000834
:1000A0004102000841020008410200084102000824
:1000B00041020008000000004102000800000000AA
:1000C0005FF808F173B500F0DDF8002322482349FA
:1000D000234C1A188A4203D2E55804331560F8E716
:1000E0000021204B204A934201D202C3FBE700F0DB
:1000F000CDF801A9684600F0BDF81C4B00251E0094
:100100001B4CE41AA410AC4204DDAB00F358984732
:100110000135F8E7174B00251E00174CE41AA41010
:10012000AC4204DDAB00F35898470135F8E701997C
:10013000009800F007FB114B05001E00104CE41A5C
:10014000A410002C04DD013CA300F3589847F8E705
:10015000280000F08BF8C04600000020240000209A
:10016000CC08000824000020380000206C020008A1
:100170006C0200086C0200086C0200086C020008A7
:100180006C0200082C480047FEE704207146084234
:1001900002D0EFF3098001E0EFF308807146274AAF
:1001A0001047FEE7FEE7FEE71E4A30B51368591E0A
:1001B00011601D49002B20D11C4B1888002809D143
:1001C00080241B48A400838A63408382FA239B0017
:1001D000136012E01888FF280FD064201B885B0092
:1001E000013B0B80134B1860FA23DB001360802265
:1001F0000F4B52009A6192181A850B88002B0FD072
:100200000C4A1068441E1460002809D18025084C4F
:100210006D00A08A013B6840A08264200B801060C2
:1002200030BDC0460C000020280000202600002021
:100230000008004808000020C5000008A3010008CD
:02024000FEE7D7
:10024400CC0800080000002024000020CC0800088E
:1002540000000000000000002400002038000020FE
:08026400000000000000000092
:10026C0010B500F011F8000001230360014B0B6086
:10027C007047C0460000002010B500F013F810BD08
:10028C0010B500F08DF810BDBFF34F8F034A044B2F
:10029C00DA60BFF34F8FC046FDE7C0460400FA0595
:1002AC0000ED00E00121364B82B01A680A431A6057
:1002BC005868344A02405A601868334A02401A603F
:1002CC001868324A02401A605868314A02400F20BE
:1002DC005A60DA6A8243DA62186B2E4A02401A6359
:1002EC005A6B80208A435A63002280219A600092C4
:1002FC0001921A6849020A43A0211A608002C901BE
:10030C001A6802400192009A01320092019A002A66
:10031C0002D1009A8A42F3D18022196892020A40D3
:10032C0000D001220192019A012A27D111211A4AE7
:10033C0011605A685A605A685A605968174A0A40DC
:10034C0088215A605A6849030A4380215A601A6806
:10035C0049040A4380211A6089041868084A084233
:10036C00FBD003205168814351605168013801432F
:10037C0051600C215A680A40082AFBD102B0704720
:10038C00001002400CB8FF08FFFFF6FEFFFFFBFF5A
:10039C00FFFFC0FFACFEFFFF00200240FF7FC0FF4D
:1003AC000C2370B5134D144E6A681340042B01D006
:1003BC00082B02D0114B336013E0C0236C686A68C1
:1003CC00A402240F5B0202341A4201D10C4806E04D
:1003DC000F23E96A09481940013100F0E5F944435B
:1003EC0034606B68074A1B061B0FD35C3268DA401B
:1003FC00326070BD001002402000002000127A0014
:10040C0000093D00100000208021074A09035369B0
:10041C000B435361054A064B11680B40A021C902DE
:10042C000B4313607047C0460010024000080048A0
:10043C00FFFFF0FFE0210A4A090353690B435361A4
:10044C0090230C21DB051A680A431A60054A1368CD
:10045C000B431360044A093913680B43136070474C
:10046C0000100240000400480008004880210B4A9C
:10047C00890253690B4353610122094BC1211A6054
:10048C009A602023074A890013605058064B03409A
:10049C008020C001034353507047C04600100240F7
:1004AC000004014000E100E0FF00FFFF8021074B4A
:1004BC0089009A690A4301219A615A6B0A435A636B
:1004CC000222596B1142FCD07047C046001002400A
:1004DC000121084B9A680A4202D09A688A439A60B2
:1004EC0080219A6809060A439A609A68002AFCDB04
:1004FC007047C0460024014080210F4B8901DA6807
:10050C00FF200A430721DA600C4A9A625A690A43AF
:10051C005A61102280215A60094AC90313680B439F
:10052C0013608022C321074B52011A6089005A586C
:10053C0082435A507047C046002401400206020014
:10054C000827014000E100E00121104A10485369DE
:10055C000B4353610F4AD3680B43D3600E4B0F4AC6
:10056C009A600F4ADA6004225A601A6802431A60D1
:10057C001A680A431A608022C2210A4B92001A6040
:10058C0089005858084A02405A50704700100240DF
:10059C008A0500000024014008000240402401406C
:1005AC002A00002000E100E0FF00FFFF0121044BC6
:1005BC009A680A439A601A680A42F9D07047C04692
:1005CC00002401400A4B9A68520703D510219A68FF
:1005DC000A439A601022986805491042FBD1022008
:1005EC008A6802438A60012299681142FCD17047E3
:1005FC00002401400220174B30B51A68024217D074
:10060C000125154A1168A943116004215160146831
:10061C002C4314605A681043586080200F4B8000A4
:10062C009A8A42409A820E4A93680B43936010E078
:10063C00082419680B4A214207D001201188014374
:10064C0011805A6822435A6003E0030011880B435F
:10065C00138030BD00000240080002400008004832
:10066C0000240140260000201021114B1A680A4278
:10067C0017D080200F4A4000906180208004906148
:10068C001A6801200A431A609A680A439A60042285
:10069C00094B1968814319605A601A6802431A6041
:1006AC0004E00421054A13880B4313807047C046AD
:1006BC0000240140000800480800024026000020E9
:1006CC000121124B10B55A690A4218D0802004241B
:1006DC005A6940000A435A610D4B0E4A99682142EF
:1006EC0008D099680C342143996080239B00906159
:1006FC00936109E0996821439960108504E0082111
:10070C00054A13880B43138010BDC04600040140FA
:10071C00002401400008004826000020034B1A6802
:10072C00002A02D01A68013A1A607047340000207F
:10073C0010B5FFF7F3FF10BD10B5FFF765FEFFF71F
:10074C0095FEFFF7B3FEFFF7C3FEFFF773FEFFF74F
:10075C002DFFFFF7D1FEFFF7F7FE04210D4A93683A
:10076C000B4393600C4A1388012B01D830BFFAE776
:10077C00FFF728FFC020094A094B0A4953600B6A4E
:10078C0000061B021B0A03430B6200239360073312
:10079C001360FEE7002401402600002010E000E07A
:1007AC007FBB000000ED00E0002243088B4274D3B5
:1007BC0003098B425FD3030A8B4244D3030B8B4256
:1007CC0028D3030C8B420DD3FF22090212BA030C5F
:1007DC008B4202D31212090265D0030B8B4219D340
:1007EC0000E0090AC30B8B4201D3CB03C01A524160
:1007FC00830B8B4201D38B03C01A5241430B8B42A8
:10080C0001D34B03C01A5241030B8B4201D30B0390
:10081C00C01A5241C30A8B4201D3CB02C01A5241B7
:10082C00830A8B4201D38B02C01A5241430A8B427A
:10083C0001D34B02C01A5241030A8B4201D30B0263
:10084C00C01A5241CDD2C3098B4201D3CB01C01A7D
:10085C00524183098B4201D38B01C01A5241430987
:10086C008B4201D34B01C01A524103098B4201D375
:10087C000B01C01A5241C3088B4201D3CB00C01AE2
:10088C00524183088B4201D38B00C01A524143085A
:10089C008B4201D34B00C01A5241411A00D201467F
:1008AC00524110467047FFE701B5002000F006F8F2
:1008BC0002BDC0460029F7D076E770477047C046A6
:1008CC00240000200000000064000000E803000089
:1008DC0000000000000000000102030406070809E4
:0408EC00006CDC02BE
:04000005080000C52A
:00000001FF
