:020000040800F2
:100000000020002085010008350700083707000898
:1000100000000000000000000000000000000000E0
:100020000000000000000000000000003907000888
:1000300000000000000000003B070008F506000873
:10004000B5010008B5010008B5010008B5010008B8
:10005000B5010008F1050008B5010008B501000868
:10006000B5010008B50100082D060008B50100081B
:10007000B5010008B5010008B5010008B501000888
:10008000B5010008B501000800000000B501000836
:10009000B5010008B5010008B5010008B501000868
:1000A000B5010008B5010008B5010008B501000858
:1000B000B501000800000000B501000800000000C4
:1000C0005FF808F173B500F0B7F800232248234920
:1000D000234C1A188A4203D2E55804331560F8E716
:1000E0000021204B204A934201D202C3FBE700F0DB
:1000F000A7F801A9684600F097F81C4B00251E00E0
:100100001B4CE41AA410AC4204DDAB00F358984732
:100110000135F8E7174B00251E00174CE41AA41010
:10012000AC4204DDAB00F35898470135F8E701997C
:10013000009800F0E3FA114B05001E00104CE41A81
:10014000A410002C04DD013CA300F3589847F8E705
:10015000280000F045F8C046000000208000002084
:100160007809000880000020A0000020E0010008BD
:10017000E0010008E0010008E0010008E0010008DB
:10018000E001000809480047FEE7042071460842E4
:1001900002D0EFF3098001E0EFF308807146044AD2
:1001A0001047FEE7FEE7FEE770470000C5000008C5
:0601B000A3010008FEE7B8
:1001B8007809000800000020800000207809000865
:1001C800000000000000000080000020A0000020C7
:0801D80000000000000000001F
:1001E00010B500F031F800000C4A10B5116803009A
:1001F000002901D10A4911600321106803338B43A0
:100200000849C3188B4206D900F024FB0C23036075
:100210000120404200E0136010BDC0468000002075
:10022000A0000020001C002001230360014B0B6094
:100230007047C0460000002010B500F013F810BD54
:1002400010B500F08DF810BDBFF34F8F034A044B7B
:10025000DA60BFF34F8FC046FDE7C0460400FA05E1
:1002600000ED00E00121364B82B01A680A431A60A3
:100270005868344A02405A601868334A02401A608B
:100280001868324A02401A605868314A02400F200A
:100290005A60DA6A8243DA62186B2E4A02401A63A5
:1002A0005A6B80208A435A63002280219A60009210
:1002B00001921A6849020A43A0211A608002C9010A
:1002C0001A6802400192009A01320092019A002AB3
:1002D00002D1009A8A42F3D18022196892020A4020
:1002E00000D001220192019A012A27D111211A4A34
:1002F00011605A685A605A685A605968174A0A4029
:1003000088215A605A6849030A4380215A601A6852
:1003100049040A4380211A6089041868084A08427F
:10032000FBD003205168814351605168013801437B
:1003300051600C215A680A40082AFBD102B070476C
:10034000001002400CB8FF08FFFFF6FEFFFFFBFFA6
:10035000FFFFC0FFACFEFFFF00200240FF7FC0FF99
:100360000C2370B5134D144E6A681340042B01D052
:10037000082B02D0114B336013E0C0236C686A680D
:10038000A402240F5B0202341A4201D10C4806E099
:100390000F23E96A09481940013100F0CFF94443BD
:1003A00034606B68074A1B061B0FD35C3268DA4067
:1003B000326070BD001002401800002000127A0068
:1003C00000093D000800002080210A4A0903536902
:1003D0000B435361084A094B11680B40A021C90126
:1003E0000B4313601168064B0B40A021C9020B435D
:1003F000136070470010024000080048FF0FFFFF25
:10040000FFFFF0FF8021094A890253690B435361C2
:100410009022D2051168064B0B40AA2109020B431A
:100420001360136A9BB213627047C046001002400B
:10043000FF00FFFF0121134A70B55369124C134DA1
:100440000B4353610F20A56000F00AFA104B832282
:1004500018600F239021E0606360236813432360DA
:100460000C4A0D4B9D60DA601A680A43C2211A607B
:100470000A4B890058580A4A02405A508022D2003A
:100480001A6070BD001002401C0002400C30014098
:1004900098000020580900083000024000E100E008
:1004A000FFFF00FF8021074A490193690B439361D5
:1004B0003C224021044B1A80044A9A801A880A433D
:1004C0001A807047001002400030014047170000BA
:1004D0008021084AC90253690B43AA215361064A85
:1004E000090613681B021B0A0B431360536A9BB275
:1004F0005362704700100240000400480121134A73
:1005000070B55369124C134D0B4353610F20A56016
:1005100000F0A6F9104B832218600F239021E060B1
:1005200063602368134323600C4A0D4B9D60DA60BF
:100530001A680A43C2211A600A4A890053581B02EA
:100540001B0A535080231B01136070BD0010024032
:10055000440002400C380040940000206709000865
:100560005800024000E100E08021064AC901D36939
:100570000B434021D361044B044A9A801A880A43F2
:100580001A807047001002400038004043170000F6
:100590008021064A890253690B435361902203214B
:1005A000D20513688B4313607047C04600100240A9
:1005B0000F2101200A4A93688B439360094B196805
:1005C00001431960C1219A68890002439A60064B71
:1005D000064A585802405A5020221A607047C046B6
:1005E000000001400004014000E100E0FF00FFFFC7
:1005F00001220F200A494B6913434B61094B1968CB
:10060000914319605860196811431960064B1968C5
:1006100091431960586019680A431A607047C046D0
:100620000004014058000240300002402021154BD8
:1006300010B51A68144C0A421CD05A6813480A4371
:100640005A60134B196800F07DF9002805D180220B
:10065000A38A92005340A38201E04023A3610120BA
:100660000F220C4B1968814319605A601A680243C3
:100670001A6005E040238022A361074BD200DA67AD
:1006800010BDC0460000024000080048670900088D
:10069000980000201C00024004E100E0FA210C4B0D
:1006A00010B51868890000F049F80A4B01389842E3
:1006B0000DD8094A09495060C0200B6A00061B0288
:1006C0001B0A03430B62002393600733136010BDC2
:1006D00018000020FFFFFF0010E000E000ED00E048
:1006E000034B1A68002A02D01A68013A1A60704750
:1006F0009C00002010B5FFF7F3FF10BD10B5FFF709
:10070000CDFFFFF761FE8022094B52009A61FFF78F
:1007100079FEFFF78FFEFFF7C5FEFFF7D9FEFFF763
:10072000EDFEFFF721FFFFF733FFFFF741FFFEE785
:10073000000800487047FEE77047704700224308F2
:100740008B4274D303098B425FD3030A8B4244D399
:10075000030B8B4228D3030C8B420DD3FF220902DB
:1007600012BA030C8B4202D31212090265D0030B9A
:100770008B4219D300E0090AC30B8B4201D3CB0390
:10078000C01A5241830B8B4201D38B03C01A5241D2
:10079000430B8B4201D34B03C01A5241030B8B42D4
:1007A00001D30B03C01A5241C30A8B4201D3CB02BF
:1007B000C01A5241830A8B4201D38B02C01A5241A4
:1007C000430A8B4201D34B02C01A5241030A8B42A7
:1007D00001D30B02C01A5241CDD2C3098B4201D3BF
:1007E000CB01C01A524183098B4201D38B01C01A3D
:1007F000524143098B4201D34B01C01A52410309B4
:100800008B4201D30B01C01A5241C3088B4201D362
:10081000CB00C01A524183088B4201D38B00C01A0F
:10082000524143088B4201D34B00C01A5241411A36
:1008300000D20146524110467047FFE701B5002043
:1008400000F006F802BDC0460029F7D076E77047F1
:100850007047C046014B18687047C0467C000020B6
:1008600010B5034B0100186800F004F810BDC04635
:100870007C000020032370B5CD1C9D430835060085
:100880000C2D01D20C2505E0002D03DA0C230020ED
:10089000336040E0A942F9D81F4B1C681A002100C0
:1008A000002913D00B685B1B0DD40B2B02D90B60F6
:1008B000CC181EE08C4202D1636813601AE04B68CA
:1008C00063600C0016E00C004968E9E7134C2368EC
:1008D000002B03D1300000F023F820602900300005
:1008E00000F01EF8431CD1D00323C41C9C43A0423B
:1008F0000AD12560200007220B30231D9043C31A24
:1009000009D05A42E25006E0211A300000F008F8FF
:10091000431CEED1BAE770BD8C0000208800002097
:10092000002370B5064C050008002360FFF75CFC4F
:10093000431C03D12368002B00D02B6070BDC04640
:100940009000002002780B78002A03D0013001319A
:100950009A42F7D0D01A7047444D412077697468A5
:1009600020535049203100416E642077697468201B
:080970005350492032004300FE
:1009780084000020000000000000000000000000CB
:100988000102030406070809006CDC0200000000ED
:10099800000000000000000000000000000000004F
:1009A80000000000000000000000000076090008B8
:1009B800000000000000000000000000000000002F
:1009C800000000000000000000000000000000001F
:1009D800000000000000000000000000000000000F
:1009E8000000000000000000000000001C000020C3
:04000005080000C52A
:00000001FF
