:020000040800F2
:1000000000200020DD0100086108000865080008E4
:1000100000000000000000000000000000000000E0
:100020000000000000000000000000006908000857
:1000300000000000000000006D0800081108000822
:100040002D0200082D0200082D0200082D020008D4
:100050002D020008350700082D0200082D020008B7
:100060002D0200082D0200082D0200082D020008B4
:100070002D0200082D0200082D0200082D020008A4
:100080002D0200082D020008000000002D020008CB
:100090002D0200082D0200082D0200082D02000884
:1000A0002D02000865070008AD0700082D020008B2
:1000B0002D020008000000002D02000800000000D2
:1000C0005FF808F130B583B000F04EF9314B324A99
:1000D0001360324A1360324B324A03E011681960F0
:1000E0000433043230498B42F8D32B4B1A682F4B20
:1000F0009A4204D1294B1A682D4B9A4200D0FEE750
:10010000244B2C4A13602C4A13602C4B02E0002233
:100110001A6004332A4A9342F9D3264B1B68002BFA
:1001200003D1254B1B68002B00D0FEE700F020F91F
:10013000694601A800F0B4F8224C234B1C1BA41004
:10014000002504E0AA001F4BD35898470135AC4264
:10015000F8DC1E4C1E4B1C1BA410002504E0AA005A
:100160001A4BD35898470135AC42F8DC00990198F6
:1001700000F052FB0500174C174B1C1BA41004E0A9
:10018000013CA200134BD3589847002CF8DC280000
:1001900000F062F8BABADECA000000208400002035
:1001A0000000002054130008880000207856341204
:1001B0003254769888000020240100208800002016
:1001C00028010020580200085802000858020008C0
:1001D00058020008580200085802000810B5FFF73E
:1001E00071FFC04600BEFEE704207146084202D0FF
:1001F000EFF3098001E0EFF3088071460A4A1047E7
:1002000070B504000D00044800F052F829002000E9
:1002100000F0B2F800BEFEE7E012000800BEFEE704
:1002200000BEFEE7704700000102000800BEFEE7C6
:100230005413000800000020880000205413000818
:1002400000000000000000008800002028010020BD
:080250000000000000000000A6
:10025800FEE7C04610B503000C4A1268002A02D116
:100268000B490A4A1160094A106803330322934371
:10027800C318084A934206D900F082FB0C23036096
:100288000120404201E0014A136010BD8C000020AB
:1002980028010020001C002001230360014B0B6093
:1002A8007047C046040000200FB400B583B004AB0B
:1002B80004CB01938021064800F09AFB002803DD57
:1002C8000100034800F048F803B008BC04B0184720
:1002D8009400002010B5040000F058FB0100200035
:1002E80000F03AF80121024800F036F810BDC04687
:1002F8003C120008F0B54F464646C0B487B004002B
:100308000191435C002B1ED10426301C211CABBE7E
:10031800041C1BE03E1E102E00D91026002304E00A
:10032800227802A9CA5401330134B342F8D302AA8D
:10033800914600224946CA540425281C4946ABBEAA
:100348008046BF1B00E0019F002FE3D1019807B052
:100358000CBC90469946F0BD10B5FFF7CBFF10BD19
:1003680010B500F0A1F810BD10B500F0CFF810BD21
:1003780070B504000D001548FFF796FF2168144872
:10038800FFF792FF61681348FFF78EFFA1681248D4
:10039800FFF78AFFE1681148FFF786FF21691048D7
:1003A800FFF782FF61690F48FFF77EFFA1690E48DA
:1003B800FFF77AFFE1690D48FFF776FF0C48FFF772
:1003C80073FF29000B48FFF76FFF70BD301200085C
:1003D800401200085012000860120008701200084D
:1003E8008012000890120008A0120008B01200083D
:1003F800C0120008C812000882B0002301930093BD
:10040800264A1368802149020B431360234B1A685C
:1004180080239B0213400093019B01330193009BAF
:10042800002B04D1019AA023DB019A42EED11B4B89
:100438001B689B0302D50123009301E0002300936E
:10044800009B012B28D11122154B1A60134B5A68B7
:100458005A605A685A605968124A0A405A605A687B
:10046800882149030A435A601A68802149040A43CB
:100478001A600A4B1B689B01FBD5084B5A6803217D
:100488008A435A60596802220A435A60034B5B68E0
:100498000C221340082BF9D102B07047001002401B
:1004A80000200240FF7FC0FF10B5124B1A680121DF
:1004B8000A431A605868104A02405A6018680F4A7E
:1004C80002401A6018680E4A02401A6058680D4ABD
:1004D80002405A60DA6A0F208243DA62186B0A4ACD
:1004E80002401A635A6B8A435A6300229A60FFF7E4
:1004F80083FF10BD001002400CB8FF08FFFFF6FE96
:10050800FFFFFBFFFFFFC0FFACFEFFFF10B51F4B57
:100518005B680C221340042B07D0082B09D0002B52
:1005280024D11B4A1B4B1A6023E0194A194B1A6045
:100538001FE0164A5468F0239B031C405268A40C21
:100548000234C0235B021A4204D113484443114BBE
:100558001C600EE00D4BDB6A0F21194001310C487D
:1005680000F082F944430B4B1C6002E0084A094B37
:100578001A60064B5B68F02213401B09074AD35CDC
:10058800DBB2044A1168D940116010BD0010024066
:1005980000127A001C00002000093D000C00002019
:1005A8000A4A5369802109030B435361084A1168B9
:1005B800084B0B40A021C9010B4313601168064B7F
:1005C8000B40A021C9020B43136070470010024082
:1005D80000080048FF0FFFFFFFFFF0FF094A5369BB
:1005E800802189020B4353619022D2051168064B82
:1005F8000B40AA2109020B431360136A1B041B0C4E
:100608001362704700100240FF00FFFF0D4A936914
:10061800802149010B4393610B4A3C2313800B4B08
:100628009380118840230B439BB21380084BC6214B
:1006380089005858074A02405A50802292041A608A
:100648007047C046001002400030014044170000C7
:1006580000E100E0FF00FFFF094A53698021C90259
:100668000B435361074A13681B021B0AAA21090698
:100678000B431360536A1B041B0C53627047C0463C
:1006880000100240000400480C4AD3698021C901C7
:100698000B43D3610A4ABA235B0193801188402334
:1006A8000B439BB21380074BC62189005858064A52
:1006B80002405A508022D2041A607047001002404B
:1006C8000038004000E100E0FFFF00FF064A5369E0
:1006D800802189020B4353619022D20513680321BC
:1006E8008B4313607047C046001002400B4A936862
:1006F8000F218B4393600A4B19680122114319603B
:1007080099680A439A60074BC12189005858064ADC
:1007180002405A5020221A607047C046000001402B
:100728000004014000E100E0FF00FFFF074A5169B3
:1007380001230B435361064B1B899B0705D5DE221A
:10074800044B1A70143A044B1A70704700040140A5
:10075800003001400C3800400C3001400E4B1B8922
:10076800DB070FD50C4B9B89DBB2DE2B06D10B4A7E
:10077800918A2333FF334B4093820BE04022074B8F
:100788009A6107E04022054B9A6180218904802301
:10079800034AD1507047C046003001400008004865
:1007A80000E100E00F4B1B89DB0710D50D4B9B893F
:1007B800DBB2CA2B06D10C4A918A80234B409BB2EC
:1007C80093820DE080225200074B9A6108E0802254
:1007D8005200054B9A618021C9048023034AD150F5
:1007E8007047C046003800400008004800E100E0BB
:1007F800044B1B68002B03D0024A1368013B1360AB
:100808007047C0462001002010B5FFF7F1FF10BD6A
:1008180010B50D48FFF75EFD0C4B19680C48FFF743
:1008280043FDFFF7BDFE802252000A4B9A61FFF795
:10083800D5FEFFF7EBFEFFF70FFFFFF725FFFFF7EA
:1008480045FFFFF753FFFEE7F01200081C000020E9
:1008580004130008000800487047C046FEE7C04679
:100868007047C0467047C046002243088B4274D385
:1008780003098B425FD3030A8B4244D3030B8B4299
:1008880028D3030C8B420DD3FF22090212BA030CA2
:100898008B4202D31212090265D0030B8B4219D383
:1008A80000E0090AC30B8B4201D3CB03C01A5241A3
:1008B800830B8B4201D38B03C01A5241430B8B42EB
:1008C80001D34B03C01A5241030B8B4201D30B03D4
:1008D800C01A5241C30A8B4201D3CB02C01A5241FB
:1008E800830A8B4201D38B02C01A5241430A8B42BE
:1008F80001D34B02C01A5241030A8B4201D30B02A7
:10090800C01A5241CDD2C3098B4201D3CB01C01AC0
:10091800524183098B4201D38B01C01A52414309CA
:100928008B4201D34B01C01A524103098B4201D3B8
:100938000B01C01A5241C3088B4201D3CB00C01A25
:10094800524183088B4201D38B00C01A524143089D
:100958008B4201D34B00C01A5241411A00D20146C2
:10096800524110467047FFE701B5002000F006F835
:1009780002BDC0460029F7D076E770477047C046E9
:10098800014B18687047C046800000200023C25CF5
:100998000133002AFBD1581E704730B514009BB0B4
:1009A80005001A00002C04DA8B2303600120404262
:1009B8001CE0822368469B008381002300910491F8
:1009C8009C4200D0631E02930593012369465B4253
:1009D800CB8128001E9B00F079F8431C01DA8B2399
:1009E8002B60002C02D00023009A13701BB030BD7E
:1009F80007B5009313000A00010002480068FFF7DA
:100A0800CCFF0EBD80000020F0B58E6885B00700D1
:100A18000C00039201939E4243D890238A89DB00FD
:100A28001A423ED003250969236801985B1A02938C
:100A380063695D43EB0F5D19029B6D1001331B1851
:100A4800AB4200D91D00530510D52900380000F02D
:100A58003BFB061E14D0029A216900F0D0FAA28945
:100A6800194B134080221343A38112E02A00380057
:100A780000F080FB061E0CD12169380000F0DEFA78
:100A88000C23402201203B60A38940421343A381E9
:100A980017E0029B2661F61826606561019EED1A33
:100AA800A560019BB34200D21E0032000399206862
:100AB80000F0AEFA0020A3689B1BA36023689E1970
:100AC800266005B0F0BDC0467FFBFFFFF0B59FB0C4
:100AD800029005938B890F0016001B0610D50B6931
:100AE800002B0DD1402100F0EFFA38603861002862
:100AF80004D10C23029A01381360D8E040237B61AB
:100B0800002306AD6B6120336B761033AB7634006F
:100B18002378002B03D1A31B049312D003E0252BC9
:100B2800F9D00134F4E7A31B320039000298FFF72B
:100B38006BFF431C00D1B4E06A69049B944663448C
:100B48006B612378002B00D1ABE0012200235242D5
:100B58006A6002A95432521801342B60EB60AB6012
:100B68001370AB65534E21780522300000F03CFA33
:100B7800002807D00123801B83402A6801341343CF
:100B88002B60EFE72B68DA0604D55322202102A850
:100B9800121811701A0704D553222B2102A8121813
:100BA800117022782A2A03D0099B00200A210EE01E
:100BB800059A111D12680591002A01DB099204E0CB
:100BC8005242EA60022213432B6001340BE0227880
:100BD800303A092A04D84B4301349B180120F6E720
:100BE800002800D0099323782E2B1ED163782A2B56
:100BF8000AD1059B02341A1D1B680592002B01DAE5
:100C080001235B42079310E000230A201A000134F5
:100C18006B6021783039092904D8424301345218CD
:100C28000123F6E7002B00D00792234E21780322F8
:100C3800300000F0D9F9002806D04023801B8340FB
:100C48002A68013413432B60217806221B48661C4E
:100C5800297600F0C9F9002812D0194B002B06D1CB
:100C68000722059B073393430833059314E005AB2C
:100C780000933A00134B2900029800E000BF07E0F8
:100C880005AB00933A000F4B2900029800F08AF850
:100C98000390039B013304D06B69039A9B186B6123
:100CA80035E7BB890B985B0601D5012040421FB090
:100CB800F0BDC0461E1300082413000828130008BE
:100CC80000000000110A0008F7B5170001938A68B0
:100CD8000B6900900C00934200DA130022003B607D
:100CE80043321278002A01D001333B6023689B0607
:100CF80002D53B6802333B60062523681D401ED0A1
:100D0800230043331B785A1E9341226892061CD550
:100D18003020E1184331087021005A1C4531097808
:100D2800A2184332023311700FE022000123193256
:100D380001990098089EB047431C0ED00135E3681E
:100D48003A689B1A9D42F0DBDAE7220001994332A8
:100D58000098089DA847431C02D10120404220E08A
:100D680006232068E1683A6803400025042B03D174
:100D78008D1AEB43DB171D40A3682269934201DDFE
:100D88009B1AED180027BD420AD0220001231A320F
:100D980001990098089EB047431CDED00137F2E75E
:100DA8000020FEBDF0B58BB006920A0043320793CF
:100DB800059004920A7E0C00109B6E2A00D1ABE0CD
:100DC80011D8632A22D009D8002A00D1B5E0582AC0
:100DD80000D0C5E045310A70814A4FE0642A1DD031
:100DE800692A1BD0BCE0732A00D1AAE009D86F2A6F
:100DF80029D0702A00D0B3E0202209680A43226073
:100E080037E0752A1FD0782A33D0A9E00E001A6877
:100E18004236111D196013683370A4E021681A68FE
:100E2800080606D4490604D5111D19600023D55EAD
:100E380002E0111D19601568002D3BDA2D23049A74
:100E48006D42137036E021681A68080606D4490610
:100E580004D51568111D1960ADB202E0111D1960A5
:100E680015685F4B227E039308276F2A1DD00A2737
:100E78001BE022007821453211705A4A1968039202
:100E8800081D226818600D68100602D4500600D5A7
:100E9800ADB2D30702D520231A4322601027002DB4
:100EA80003D1202322689A4322602300002243337F
:100EB8001A7002E00A274A4B03936368A360002B69
:100EC80009DB0422216891432160002D05D1049E8D
:100ED800002B11D07BE0002D79D0049E280039002A
:100EE800FFF748FD039B013E5B5C28003370390027
:100EF800FFF7BAFC051EF1D1082F09D12368DB07DB
:100F080006D563682269934202DC3023013E3370C0
:100F1800049B9B1B23612BE009681A68080607D409
:100F2800490605D5111D19601368A28A1A8004E0C4
:100F3800111D1960136862691A600023049E2361F9
:100F480016E01A68111D19601668002162683000E1
:100F580000F04AF8002801D0801B6060636803E055
:100F6800260042363270012323610023049A13704D
:100F7800079B09AA00932100069B0598FFF7A4FE8A
:100F8800431C02D10120404227E023693200069920
:100F98000598079DA847431CF4D0236800259B07A4
:100FA8000FD4099BE068984217DA180015E0220070
:100FB8000123193206990598079EB047431CE1D0D2
:100FC8000135E368099A9B1A9D42F0DBE9E72600A0
:100FD800039B42361B7833708EE70BB0F0BDC046DA
:100FE8002F13000840130008C9B28218904204D099
:100FF80003788B4202D00130F8E7002070470023C5
:1010080010B59A4203D0CC5CC4540133F9E710BD43
:1010180010B5884202D98B18984201D3002305E005
:101028009B1A013A08D3995C8154FAE7934203D09A
:10103800CC5CC4540133F9E710BD000030B5002979
:101048003ED004390B68002B00DAC9181D4A136812
:101058001400002B02D14B60116031E08B420DD996
:101068000A688818834203D118685B6882180A6086
:101078004B60216024E08A4203D813005A68002A92
:10108800F9D11D685C198C420BD109686918581888
:101098001960824214D110685268411819605A6068
:1010A8000EE08C4202D90C23036009E008680C1892
:1010B800A24203D114685268201808604A60596037
:1010C80030BDC04618010020032370B5CD1C9D43D8
:1010D800083506000C2D01D20C2505E0002D03DA99
:1010E8000C230020336040E0A942F9D81F4B1C684C
:1010F8001A002100002913D00B685B1B0DD40B2BA1
:1011080002D90B60CC181EE08C4202D163681360D0
:101118001AE04B6863600C0016E00C004968E9E7C8
:10112800134C2368002B03D1300000F049F82060ED
:101138002900300000F044F8431CD1D00323C41C1C
:101148009C43A0420AD12560200007220B30231DB2
:101158009043C31A09D05A42E25006E0211A3000DF
:1011680000F02EF8431CEED1BAE770BD180100203C
:1011780014010020F8B506000C001500002904D160
:101188001100FFF7A1FF040018E0002A03D1FFF7C0
:1011980055FF2C0012E000F025F885420ED92900F1
:1011A8003000FFF791FF071E07D021002A00FFF744
:1011B80026FF21003000FFF741FF3C002000F8BD6A
:1011C800002370B5064C050008002360FFF742F8BD
:1011D800431C03D12368002B00D02B6070BDC04690
:1011E8001C0100200B1F1A68101F002A04DA891836
:1011F80004390B68D0180438704700006D61696EB7
:1012080028617267633D25642C20617267763D5BB7
:10121800000000002C20000022257322000000009E
:101228005D293B0A00000000537461636B206672FD
:10123800616D653A0A000000205230203D202025CB
:101248003038580A00000000205231203D20202567
:101258003038580A00000000205232203D20202556
:101268003038580A00000000205233203D20202545
:101278003038580A0000000020523132203D202525
:101288003038580A00000000204C52203D2020250C
:101298003038580A00000000205043203D20202507
:1012A8003038580A0000000020505352203D2025B5
:1012B8003038580A000000004D6973630A000000C6
:1012C800204C522F4558435F52455455524E3D20AD
:1012D800253038580A0000005B4861726446617521
:1012E8006C745D0A0000000048656C6C6F20415208
:1012F8004D20576F726C642100000000537973749D
:10130800656D20636C6F636B3A20257520487A0AF7
:10131800000000004300232D302B2000686C4C0097
:1013280065666745464700303132333435363738DD
:10133800394142434445460030313233343536373B
:09134800383961626364656600D6
:1013540078563412900000200000000000000000C5
:10136400000000000102030406070809006CDC0207
:101374000000000000000000000000000000000069
:101384000000000000000000000000000000000059
:101394001C13000800000000000000000000000012
:1013A4000000000000000000000000000000000039
:1013B4000000000000000000000000000000000029
:1013C4000000000000000000000000000000000019
:0813D40020000020325476983D
:04000005080000C52A
:00000001FF
