:020000040800F2
:100000000020002085010008890100088B010008FC
:1000100000000000000000000000000000000000E0
:10002000000000000000000000000000A501000822
:100030000000000000000000A70100083D040008C7
:10004000B5010008B5010008B5010008B5010008B8
:10005000B5010008B5010008B5010008B5010008A8
:10006000B5010008B5010008B5010008B501000898
:10007000B5010008B5010008B5010008B501000888
:10008000B5010008B501000800000000B501000836
:10009000B5010008B5010008B5010008B501000868
:1000A000B5010008B5010008B5010008B501000858
:1000B000B501000800000000B501000800000000C4
:1000C0005FF808F173B500F097F800232248234940
:1000D000234C1A188A4203D2E55804331560F8E716
:1000E0000021204B204A934201D202C3FBE700F0DB
:1000F00087F801A9684600F077F81C4B00251E0020
:100100001B4CE41AA410AC4204DDAB00F358984732
:100110000135F8E7174B00251E00174CE41AA41010
:10012000AC4204DDAB00F35898470135F8E701997C
:10013000009800F087F9114B05001E00104CE41ADE
:10014000A410002C04DD013CA300F3589847F8E705
:10015000280000F045F8C046000000201C000020E8
:10016000780500081C00002024000020E0010008A1
:10017000E0010008E0010008E0010008E0010008DB
:10018000E001000809480047FEE7042071460842E4
:1001900002D0EFF3098001E0EFF308807146044AD2
:1001A0001047FEE7FEE7FEE770470000C5000008C5
:0601B000A3010008FEE7B8
:1001B80078050008000000201C00002078050008D1
:1001C80000000000000000001C00002024000020A7
:0801D80000000000000000001F
:1001E00010B500F011F8000001230360014B0B6013
:1001F0007047C0460000002010B500F013F810BD95
:1002000010B500F08DF810BDBFF34F8F034A044BBB
:10021000DA60BFF34F8FC046FDE7C0460400FA0521
:1002200000ED00E00121364B82B01A680A431A60E3
:100230005868344A02405A601868334A02401A60CB
:100240001868324A02401A605868314A02400F204A
:100250005A60DA6A8243DA62186B2E4A02401A63E5
:100260005A6B80208A435A63002280219A60009250
:1002700001921A6849020A43A0211A608002C9014A
:100280001A6802400192009A01320092019A002AF3
:1002900002D1009A8A42F3D18022196892020A4060
:1002A00000D001220192019A012A27D111211A4A74
:1002B00011605A685A605A685A605968174A0A4069
:1002C00088215A605A6849030A4380215A601A6893
:1002D00049040A4380211A6089041868084A0842C0
:1002E000FBD00320516881435160516801380143BC
:1002F00051600C215A680A40082AFBD102B07047AD
:10030000001002400CB8FF08FFFFF6FEFFFFFBFFE6
:10031000FFFFC0FFACFEFFFF00200240FF7FC0FFD9
:100320000C2370B5134D144E6A681340042B01D092
:10033000082B02D0114B336013E0C0236C686A684D
:10034000A402240F5B0202341A4201D10C4806E0D9
:100350000F23E96A09481940013100F081F844434C
:1003600034606B68074A1B061B0FD35C3268DA40A7
:10037000326070BD001002401800002000127A00A8
:1003800000093D00080000208021074A0903536945
:100390000B435361054A064B11680B40A021C9026B
:1003A0000B4313607047C04600100240000800482D
:1003B000FFFFF0FF80218020184A0901936910B5E2
:1003C0000B43936151698002014351619021C9053A
:1003D0000B68134A1340022203430B604B6A13431A
:1003E0004B6268210F4B2D321A85273ADA62043AA4
:1003F0005A631A8B981D0A431A831A8C67390A4369
:100400001A848022C48F12022243C2871A880A43A8
:100410001A809A8A0A439A8210BDC0460010024090
:10042000FFFFFCFF002C0140034B1A68002A02D09A
:100430001A68013A1A6070472000002010B5FFF7D3
:10044000F3FF10BD10B5FFF79FFFFFF7B3FF80224A
:10045000024B92009A6130BFFDE7C0460008004899
:10046000002243088B4274D303098B425FD3030AF3
:100470008B4244D3030B8B4228D3030C8B420DD306
:10048000FF22090212BA030C8B4202D31212090294
:1004900065D0030B8B4219D300E0090AC30B8B42D2
:1004A00001D3CB03C01A5241830B8B4201D38B0380
:1004B000C01A5241430B8B4201D34B03C01A524125
:1004C000030B8B4201D30B03C01A5241C30A8B4268
:1004D00001D3CB02C01A5241830A8B4201D38B0253
:1004E000C01A5241430A8B4201D34B02C01A5241F7
:1004F000030A8B4201D30B02C01A5241CDD2C30969
:100500008B4201D3CB01C01A524183098B4201D3E4
:100510008B01C01A524143098B4201D34B01C01ACF
:10052000524103098B4201D30B01C01A5241C30847
:100530008B4201D3CB00C01A524183088B4201D3B6
:100540008B00C01A524143088B4201D34B00C01AA2
:100550005241411A00D20146524110467047FFE70E
:1005600001B5002000F006F802BDC0460029F7D012
:0805700076E770477047C046B2
:100578001C00002000000000000000000000000037
:0C0588000102030406070809006CDC02F5
:04000005080000C52A
:00000001FF
