:020000040800F2
:1000000000200020DD010008E5010008E9010008EA
:1000100000000000000000000000000000000000E0
:100020000000000000000000000000001D020008A9
:10003000000000000000000021020008250F000859
:100040002D0200082D0200082D0200082D020008D4
:100050002D0200082D0200082D0200082D020008C4
:100060002D0200082D0200082D0200082D020008B4
:100070002D0200082D0200082D0200089D0F000827
:100080002D0200082D020008000000002D020008CB
:100090002D0200082D0200082D0200082D02000884
:1000A0002D0200082D0200082D0200082D02000874
:1000B0002D020008000000002D02000800000000D2
:1000C0005FF808F130B583B000F070FD314B324A73
:1000D0001360324A1360324B324A03E011681960F0
:1000E0000433043230498B42F8D32B4B1A682F4B20
:1000F0009A4204D1294B1A682D4B9A4200D0FEE750
:10010000244B2C4A13602C4A13602C4B02E0002233
:100110001A6004332A4A9342F9D3264B1B68002BFA
:1001200003D1254B1B68002B00D0FEE700F042FDF9
:10013000694601A800F0CCFC224C234B1C1BA410E8
:10014000002504E0AA001F4BD35898470135AC4264
:10015000F8DC1E4C1E4B1C1BA410002504E0AA005A
:100160001A4BD35898470135AC42F8DC00990198F6
:1001700000F0DCFE0500174C174B1C1BA41004E01C
:10018000013CA200134BD3589847002CF8DC280000
:1001900000F070FCBABADECA000000208400002023
:1001A000000000200C1C0008880000207856341243
:1001B0003254769888000020240100208800002016
:1001C00028010020580200085802000858020008C0
:1001D00058020008580200085802000810B5FFF73E
:1001E00071FFC04600BEFEE704207146084202D0FF
:1001F000EFF3098001E0EFF3088071460A4A1047E7
:1002000070B504000D00044800F074FC29002000C3
:1002100000F0D4FC00BEFEE78C1B000800BEFEE729
:1002200000BEFEE7704700000102000800BEFEE7C6
:100230000C1C000800000020880000200C1C000896
:1002400000000000000000008800002028010020BD
:080250000000000000000000A6
:1002580070B505000E009023DB05984212D03C4B88
:1002680098420FD03B4B98420CD03B4B984209D058
:100278003A4B984206D03A4B984203D0B4213948B9
:1002880000F02AFC3368002B03D1B521354800F073
:1002980023FC3379032B03D9B621324800F01CFC28
:1002A800F379022B03D9B7212E4800F015FC00245E
:1002B8004AE00123A34032681A40934243D133797C
:1002C800013BDBB2012B27D87379012B05D9032B0E
:1002D80003D0C721234800F0FFFBAB68610003226D
:1002E8008A409343AB60AA6873798B401343AB6031
:1002F800B379012B03D9CE211A4800F0EDFBAB8866
:100308002204120C012191408B43AB80A988B37958
:1003180093400B439BB2AB802B6861000322100013
:10032800884083432B60286833798B4003432B60D4
:10033800EB682004C00B82409343EB60EA68F379D2
:100348008B401343EB6001340F2CB2D970BDC0460B
:100358000004004800080048000C0048001000484D
:10036800001400486819000870B504000D009023B7
:10037800DB05984213D0284B984210D0274B98425F
:100388000DD0274B98420AD0264B984207D0264BCF
:10039800984204D09B214900244800F09DFB6B1E25
:1003A8009BB2012B30D9042D2ED0082D2CD0102D26
:1003B8002AD0202D28D0402D26D0802D24D080234F
:1003C8005B009D4220D00133FF339D421CD0802327
:1003D800DB009D4218D080231B019D4214D080234E
:1003E8005B019D4210D080239B019D420CD080234D
:1003F800DB019D4208D080231B029D4204D0382196
:10040800FF310A4800F068FB238A2B4201D0012003
:1004180000E0002070BDC046000400480008004805
:10042800000C004800100048001400486819000833
:1004380070B504000D009023DB05984213D00E4BD5
:10044800984210D00D4B98420DD00D4B98420AD0CF
:100458000C4B984207D00C4B984204D0C821490055
:100468000A4800F039FB002D04D19221FF310748DA
:1004780000F032FBA56170BD000400480008004888
:10048800000C0048001000480014004868190008D3
:1004980070B504000D009023DB05984213D00E4B75
:1004A800984210D00D4B98420DD00D4B98420AD06F
:1004B8000C4B984207D00C4B984204D0A621FF3130
:1004C8000A4800F009FB002D04D1D3214900074850
:1004D80000F002FB258570BD0004004800080048B4
:1004E800000C004800100048001400486819000873
:1004F80070B504000D0016009023DB05984213D058
:100508002A4B984210D02A4B98420DD0294B98423A
:100518000AD0294B984207D0284B984204D0DF21B3
:100528004900274800F0D8FA6B1E9BB2012B30D93E
:10053800042D2ED0082D2CD0102D2AD0202D28D0D7
:10054800402D26D0802D24D080235B009D4220D0D2
:100558000133FF339D421CD08023DB009D4218D01D
:1005680080231B019D4214D080235B019D4210D043
:1005780080239B019D420CD08023DB019D4208D043
:1005880080231B029D4204D0C021FF310C4800F09B
:10059800A3FA012E04D9E0214900094800F09CFA89
:1005A800002E01D0A56100E0258570BD000400483B
:1005B80000080048000C00480010004800140048DB
:1005C8006819000870B504008378012B03D95221FB
:1005D800174800F081FA6378032B03D95321144894
:1005E80000F07AFAA378002B19D021788808114DE9
:1005F800C0308000465903231940C900FC331A0053
:100608008A4096436278920113408B4033434351AA
:1006180023781F221A40012393402B6007E0237898
:100628001F221A4001239340802202498B5070BD3B
:100638009C19000800E100E070B504000D000D4BA6
:10064800184201D1002803D10B490C4800F044FAA4
:10065800012D03D90A49094800F03EFA002D04D0BB
:10066800084A53691C43546103E0064A5369A3438B
:10067800536170BDAAFF81FE36050000D01900083D
:10068800370500000010024070B504000D000E4B45
:10069800184201D1002803D10C490D4800F01CFA7A
:1006A800012D04D9B121C900094800F015FA002D1F
:1006B80004D0084AD3691C43D46103E0054AD369CE
:1006C800A343D36170BDC046CCB611858705000031
:1006D800D01900080010024070B504000D00374B17
:1006E80098421DD08023DB05984219D0344B98429C
:1006F80016D0344B984213D0334B984210D0334B1A
:1007080098420DD0324B98420AD0324B984207D0CB
:10071800314B984204D086214900304800F0DCF97A
:100728006B88002B0CD0102B0AD0202B08D0402B24
:1007380006D0602B04D00E21FF31284800F0CCF9F8
:100748002B89002B0CD080225200934208D0013212
:10075800FF32934204D087214900204800F0BCF9B9
:1007680023889BB2154A944206D08022D20594422F
:1007780002D0134A944203D1702293436A881343E8
:10078800104A944204D0164A13402A8913439BB254
:1007980023806B68E3622B882385084B9C4208D032
:1007A8000B4B9C4205D00B4B9C4202D00A4B9C42FF
:1007B80001D1AB7A23860123A38270BD002C0140AE
:1007C80000040040001000400014004000200040D9
:1007D800004001400044014000480140001A000860
:1007E800FFFCFFFF70B504000D001A4B98421DD0A6
:1007F8008023DB05984219D0174B984216D0174B27
:10080800984213D0164B984210D0164B98420DD0F0
:10081800154B98420AD0154B984207D0144B984272
:1008280004D097218900134800F056F9012D03D907
:100838001149104800F050F9002D05D022880123F5
:1008480013439BB2238003E0238801229343238030
:1008580070BDC046002C014000040040001000405C
:1008680000140040002000400040014000440140C6
:1008780000480140001A00085D02000070B504003D
:100888000D0016001D4B98421DD08023DB059842B1
:1008980019D01B4B984216D01A4B984213D01A4BBA
:1008A800984210D0194B98420DD0194B98420AD053
:1008B800184B984207D0184B984204D0952109014B
:1008C800164800F009F9FF232A009A4301D1002DA8
:1008D80003D11349114800F0FFF8012E03D911493B
:1008E8000E4800F0F9F8002E03D0A3891D43A58116
:1008F80002E0A389AB43A38170BDC046002C014030
:100908000004004000100040001400400020004097
:10091800004001400044014000480140001A00081E
:10092800510900005209000070B504000D00204B69
:1009380098421CD08023DB05984218D01D4B984262
:1009480015D01D4B984212D01C4B98420FD01C4B0F
:1009580098420CD01B4B984209D01B4B984206D0AA
:100968001A4B984203D01A491A4800F0B5F86B1E82
:100978009BB2012B0FD9042D0DD0082D0BD0102DB3
:1009880009D0202D07D0402D05D0802D03D0124945
:10099800104800F0A1F8228AA3892B402A4203D0EC
:1009A800002B03D1002002E0002000E0012070BDF0
:1009B800002C0140000400400010004000140040DA
:1009C8000020004000400140004401400048014030
:1009D800F7090000001A0008F809000070B50500C2
:1009E8000C00174B98421CD08023DB05984218D086
:1009F800144B984215D0144B984212D0134B98427E
:100A08000FD0134B98420CD0124B984209D0124B7E
:100A1800984206D0114B984203D01149114800F072
:100A28005BF8FF2322009A4301D1002C03D10E4921
:100A38000C4800F051F8E443A4B22C8270BDC046C3
:100A4800002C014000040040001000400014004049
:100A5800002000400040014000440140004801409F
:100A6800240A0000001A0008250A0000FEE7C04614
:100A780010B5034800F050F80120FFF7F7FFC04613
:100A8800301A000810B503000C4A1268002A02D177
:100A98000B490A4A1160094A106803330322934339
:100AA800C318084A934206D900F01CFB0C230360C4
:100AB8000120404201E0014A136010BD8C00002073
:100AC80028010020001C002001230360014B0B605B
:100AD8007047C0460400002010B50A000100024813
:100AE80000F004F8FFF7C4FF841A00080FB400B53B
:100AF80083B004AB04CB01938021064800F02AFBA5
:100B0800002803DD0100034800F048F803B008BCE2
:100B180004B018479400002010B5040000F0E8FA6B
:100B28000100200000F03AF80121024800F036F8F0
:100B380010BDC046E81A0008F0B54F464646C0B496
:100B480087B004000191435C002B1ED10426301CA1
:100B5800211CABBE041C1BE03E1E102E00D9102623
:100B6800002304E0227802A9CA5401330134B342B5
:100B7800F8D302AA914600224946CA540425281CE3
:100B88004946ABBE8046BF1B00E0019F002FE3D162
:100B9800019807B00CBC90469946F0BD10B5FFF718
:100BA800CBFF10BD10B500F0A1F810BD10B500F0D6
:100BB800CFF810BD70B504000D001548FFF796FF7B
:100BC80021681448FFF792FF61681348FFF78EFF0A
:100BD800A1681248FFF78AFFE1681148FFF786FF0E
:100BE80021691048FFF782FF61690F48FFF77EFF10
:100BF800A1690E48FFF77AFFE1690D48FFF776FF14
:100C08000C48FFF773FF29000B48FFF76FFF70BD13
:100C1800DC1A0008EC1A0008FC1A00080C1B000873
:100C28001C1B00082C1B00083C1B00084C1B000860
:100C38005C1B00086C1B0008741B000882B00023B2
:100C480001930093264A1368802149020B431360DD
:100C5800234B1A6880239B0213400093019B0133A6
:100C68000193009B002B04D1019AA023DB019A4237
:100C7800EED11B4B1B689B0302D50123009301E0B7
:100C880000230093009B012B28D11122154B1A60D9
:100C9800134B5A685A605A685A605968124A0A408F
:100CA8005A605A68882149030A435A601A688021A1
:100CB80049040A431A600A4B1B689B01FBD5084B81
:100CC8005A6803218A435A60596802220A435A60C3
:100CD800034B5B680C221340082BF9D102B0704714
:100CE8000010024000200240FF7FC0FF10B5124BE9
:100CF8001A6801210A431A605868104A02405A606B
:100D080018680F4A02401A6018680E4A02401A60B2
:100D180058680D4A02405A60DA6A0F208243DA6244
:100D2800186B0A4A02401A635A6B8A435A630022B4
:100D38009A60FFF783FF10BD001002400CB8FF084F
:100D4800FFFFF6FEFFFFFBFFFFFFC0FFACFEFFFF4C
:100D580010B51F4B5B680C221340042B07D0082BDF
:100D680009D0002B24D11B4A1B4B1A6023E0194AD7
:100D7800194B1A601FE0164A5468F0239B031C4065
:100D88005268A40C0234C0235B021A4204D11348EF
:100D98004443114B1C600EE00D4BDB6A0F211940D8
:100DA80001310C4800F012F944430B4B1C6002E07F
:100DB800084A094B1A60064B5B68F02213401B096E
:100DC800074AD35CDBB2044A1168D940116010BDF0
:100DD8000010024000127A001C00002000093D00AB
:100DE8000C000020F0B583B0012180200003FFF73C
:100DF80023FC8027BF00009701266B461E71002444
:100E08009C7103255D71DC7169461048FFF720FA73
:100E180039000E48FFF73CFB0D4A536980218902CF
:100E28000B435361082300936B461E719C715D71DF
:100E3800DC719024E40569462000FFF709FA0122D5
:100E480008212000FFF754FB03B0F0BD000800485C
:100E58000010024010B50C4B1868FA21890000F008
:100E6800B5F80138094B98420DD8094A506009492C
:100E78000B6A1B021B0AC020000603430B620023F7
:100E880093600733136010BD1C000020FFFFFF00B4
:100E980010E000E000ED00E010B584B003A80F23D7
:100EA80003700D3B4370013B8370FFF78BFB0121FF
:100EB8000120FFF7E9FB0C4B01930C4B6A461380AA
:100EC8000023138153808024E40569462000FFF73E
:100ED80003FC012201212000FFF7D0FC01212000A2
:100EE800FFF780FC04B010BD0F2700008F0600003C
:100EF800034B1860024B1B68002BFBD17047C046A0
:100F080020010020044B1B68002B03D0024A136801
:100F1800013B13607047C0462001002010B5FFF761
:100F2800F1FF10BD10B51548FFF7F6FD144B196811
:100F38001448FFF7DBFDFFF7AFFFFFF78BFFFFF765
:100F480051FF0024802189000F48FFF771FA002C17
:100F580002D1FA20800000E00C48FFF7C9FF802189
:100F680089000948FFF794FAFA20FFF7C1FF013416
:100F780021000748FFF7BAFDE4E7C0469C1B0008BC
:100F88001C000020B01B000800080048EE0200000A
:100F9800C81B000810B501218020C005FFF7C4FC5C
:100FA800002811D001218020C005FFF717FD9024EB
:100FB800E40508212000FFF7D7F942424241D2B2A6
:100FC80008212000FFF794FA10BDC046002243080C
:100FD8008B4274D303098B425FD3030A8B4244D3F9
:100FE800030B8B4228D3030C8B420DD3FF2209023B
:100FF80012BA030C8B4202D31212090265D0030BFA
:101008008B4219D300E0090AC30B8B4201D3CB03EF
:10101800C01A5241830B8B4201D38B03C01A524131
:10102800430B8B4201D34B03C01A5241030B8B4233
:1010380001D30B03C01A5241C30A8B4201D3CB021E
:10104800C01A5241830A8B4201D38B02C01A524103
:10105800430A8B4201D34B02C01A5241030A8B4206
:1010680001D30B02C01A5241CDD2C3098B4201D31E
:10107800CB01C01A524183098B4201D38B01C01A9C
:10108800524143098B4201D34B01C01A5241030913
:101098008B4201D30B01C01A5241C3088B4201D3C2
:1010A800CB00C01A524183088B4201D38B00C01A6F
:1010B800524143088B4201D34B00C01A5241411A96
:1010C80000D20146524110467047FFE701B50020A3
:1010D80000F006F802BDC0460029F7D076E7704751
:1010E8007047C046014B18687047C0468000002012
:1010F8000023C25C0133002AFBD1581E704730B56B
:1011080014009BB005001A00002C04DA8B2303603E
:10111800012040421CE0822368469B008381002313
:10112800009104919C4200D0631E02930593012311
:1011380069465B42CB8128001E9B00F079F8431C6E
:1011480001DA8B232B60002C02D00023009A137045
:101158001BB030BD07B5009313000A000100024818
:101168000068FFF7CCFF0EBD80000020F0B58E6848
:1011780085B007000C00039201939E4243D8902348
:101188008A89DB001A423ED0032509692368019841
:101198005B1A029363695D43EB0F5D19029B6D1047
:1011A80001331B18AB4200D91D00530510D5290087
:1011B800380000F03BFB061E14D0029A216900F0AB
:1011C800D0FAA289194B134080221343A38112E05D
:1011D8002A00380000F080FB061E0CD12169380077
:1011E80000F0DEFA0C23402201203B60A389404234
:1011F8001343A38117E0029B2661F61826606561F8
:10120800019EED1AA560019BB34200D21E00320078
:101218000399206800F0AEFA0020A3689B1BA36026
:1012280023689E19266005B0F0BDC0467FFBFFFF0E
:10123800F0B59FB0029005938B890F0016001B062E
:1012480010D50B69002B0DD1402100F0EFFA386062
:101258003861002804D10C23029A01381360D8E0C1
:1012680040237B61002306AD6B6120336B7610331E
:10127800AB7634002378002B03D1A31B049312D040
:1012880003E0252BF9D00134F4E7A31B3200390021
:101298000298FFF76BFF431C00D1B4E06A69049B16
:1012A800944663446B612378002B00D1ABE00122A4
:1012B800002352426A6002A95432521801342B604A
:1012C800EB60AB601370AB65534E2178052230009C
:1012D80000F03CFA002807D00123801B83402A68CD
:1012E800013413432B60EFE72B68DA0604D5532249
:1012F800202102A8121811701A0704D553222B2195
:1013080002A81218117022782A2A03D0099B0020FB
:101318000A210EE0059A111D12680591002A01DBC9
:10132800099204E05242EA60022213432B6001341E
:101338000BE02278303A092A04D84B4301349B1831
:101348000120F6E7002800D0099323782E2B1ED120
:1013580063782A2B0AD1059B02341A1D1B68059253
:10136800002B01DA01235B42079310E000230A20D7
:101378001A0001346B6021783039092904D84243B6
:10138800013452180123F6E7002B00D00792234EB0
:1013980021780322300000F0D9F9002806D0402334
:1013A800801B83402A68013413432B60217806226E
:1013B8001B48661C297600F0C9F9002812D0194B81
:1013C800002B06D10722059B073393430833059367
:1013D80014E005AB00933A00134B2900029800E093
:1013E80000BF07E005AB00933A000F4B29000298B5
:1013F80000F08AF80390039B013304D06B69039AC9
:101408009B186B6135E7BB890B985B0601D50120FA
:1014180040421FB0F0BDC046D61B0008DC1B0008C8
:10142800E01B00080000000075110008F7B5170060
:1014380001938A680B6900900C00934200DA13004C
:1014480022003B6043321278002A01D001333B600E
:1014580023689B0602D53B6802333B600625236858
:101468001D401ED0230043331B785A1E9341226827
:1014780092061CD53020E1184331087021005A1C0F
:1014880045310978A2184332023311700FE0220067
:101498000123193201990098089EB047431C0ED0C9
:1014A8000135E3683A689B1A9D42F0DBDAE72200CF
:1014B800019943320098089DA847431C02D1012096
:1014C800404220E006232068E1683A68034000258E
:1014D800042B03D18D1AEB43DB171D40A368226947
:1014E800934201DD9B1AED180027BD420AD0220065
:1014F80001231A3201990098089EB047431CDED098
:101508000137F2E70020FEBDF0B58BB006920A0065
:1015180043320793059004920A7E0C00109B6E2AB2
:1015280000D1ABE011D8632A22D009D8002A00D113
:10153800B5E0582A00D0C5E045310A70814A4FE02D
:10154800642A1DD0692A1BD0BCE0732A00D1AAE006
:1015580009D86F2A29D0702A00D0B3E02022096860
:101568000A43226037E0752A1FD0782A33D0A9E0D1
:101578000E001A684236111D196013683370A4E012
:1015880021681A68080606D4490604D5111D196091
:101598000023D55E02E0111D19601568002D3BDAA5
:1015A8002D23049A6D42137036E021681A680806E4
:1015B80006D4490604D51568111D1960ADB202E0BC
:1015C800111D196015685F4B227E039308276F2A47
:1015D8001DD00A271BE022007821453211705A4A93
:1015E80019680392081D226818600D68100602D455
:1015F800500600D5ADB2D30702D520231A43226086
:101608001027002D03D1202322689A43226023004B
:10161800002243331A7002E00A274A4B0393636897
:10162800A360002B09DB0422216891432160002D6F
:1016380005D1049E002B11D07BE0002D79D0049EAB
:1016480028003900FFF748FD039B013E5B5C28003A
:1016580033703900FFF7BAFC051EF1D1082F09D104
:101668002368DB0706D563682269934202DC3023CE
:10167800013E3370049B9B1B23612BE009681A68A9
:10168800080607D4490605D5111D19601368A28AF2
:101698001A8004E0111D1960136862691A6000233A
:1016A800049E236116E01A68111D1960166800214E
:1016B8006268300000F04AF8002801D0801B6060A2
:1016C800636803E026004236327001232361002359
:1016D800049A1370079B09AA00932100069B05989A
:1016E800FFF7A4FE431C02D10120404227E02369F2
:1016F800320006990598079DA847431CF4D0236833
:1017080000259B070FD4099BE068984217DA180058
:1017180015E022000123193206990598079EB04763
:10172800431CE1D00135E368099A9B1A9D42F0DB1E
:10173800E9E72600039B42361B7833708EE70BB02F
:10174800F0BDC046E71B0008F81B0008C9B28218A4
:10175800904204D003788B4202D00130F8E7002091
:101768007047002310B59A4203D0CC5CC4540133AF
:10177800F9E710BD10B5884202D98B18984201D3F9
:10178800002305E09B1A013A08D3995C8154FAE7D3
:10179800934203D0CC5CC4540133F9E710BD000078
:1017A80030B500293ED004390B68002B00DAC9187F
:1017B8001D4A13681400002B02D14B60116031E000
:1017C8008B420DD90A688818834203D118685B6870
:1017D80082180A604B60216024E08A4203D8130013
:1017E8005A68002AF9D11D685C198C420BD1096826
:1017F800691858181960824214D110685268411843
:1018080019605A600EE08C4202D90C23036009E08B
:1018180008680C18A24203D114685268201808609E
:101828004A60596030BDC04618010020032370B5D6
:10183800CD1C9D43083506000C2D01D20C2505E072
:10184800002D03DA0C230020336040E0A942F9D8C8
:101858001F4B1C681A002100002913D00B685B1B62
:101868000DD40B2B02D90B60CC181EE08C4202D190
:10187800636813601AE04B6863600C0016E00C00A4
:101888004968E9E7134C2368002B03D1300000F0C6
:1018980049F820602900300000F044F8431CD1D0FA
:1018A8000323C41C9C43A0420AD1256020000722C0
:1018B8000B30231D9043C31A09D05A42E25006E068
:1018C800211A300000F02EF8431CEED1BAE770BDA3
:1018D8001801002014010020F8B506000C001500BE
:1018E800002904D11100FFF7A1FF040018E0002A25
:1018F80003D1FFF755FF2C0012E000F025F88542D0
:101908000ED929003000FFF791FF071E07D02100EC
:101918002A00FFF726FF21003000FFF741FF3C00B7
:101928002000F8BD002370B5064C050008002360B0
:10193800FFF7A8F8431C03D12368002B00D02B60C5
:1019480070BDC0461C0100200B1F1A68101F002A1A
:1019580004DA891804390B68D01804387047000075
:101968002E2E2F73797374656D2F7372632F7374B2
:101978006D333266302D7374647065726970682FC8
:1019880073746D3332663078785F6770696F2E6371
:10199800000000002E2E2F73797374656D2F7372FB
:1019A800632F73746D333266302D7374647065728F
:1019B8006970682F73746D3332663078785F6D693B
:1019C80073632E63000000002E2E2F7379737465E5
:1019D8006D2F7372632F73746D333266302D737489
:1019E800647065726970682F73746D33326630780D
:1019F800785F7263632E63002E2E2F73797374657C
:101A08006D2F7372632F73746D333266302D737458
:101A1800647065726970682F73746D3332663078DC
:101A2800785F74696D2E630061626F727428292C67
:101A38002065786974696E672E2E2E002C206675D5
:101A48006E6374696F6E3A200000000061737365FD
:101A58007274696F6E2022257322206661696C6535
:101A6800643A2066696C6520222573222C206C69F3
:101A78006E65202564257325730A000061737365FC
:101A880072745F706172616D2829206661696C6586
:101A9800643A2066696C6520222573222C206C69C3
:101AA8006E652025640A00006D61696E28617267A1
:101AB800633D25642C20617267763D5B0000000061
:101AC8002C20000022257322000000005D293B0A1B
:101AD80000000000537461636B206672616D653AA3
:101AE8000A000000205230203D2020253038580AB6
:101AF80000000000205231203D2020253038580AAF
:101B080000000000205232203D2020253038580A9D
:101B180000000000205233203D2020253038580A8C
:101B28000000000020523132203D20253038580A6C
:101B380000000000204C52203D2020253038580A53
:101B480000000000205043203D2020253038580A4E
:101B58000000000020505352203D20253038580AFC
:101B6800000000004D6973630A000000204C522FEA
:101B78004558435F52455455524E3D2025303858FC
:101B88000A0000005B486172644661756C745D0A06
:101B98000000000048656C6C6F2041524D20576F63
:101BA800726C64210000000053797374656D2063C2
:101BB8006C6F636B3A20257520487A0A0000000094
:101BC8005365636F6E642025750A00004300232D5A
:101BD800302B2000686C4C0065666745464700302E
:101BE800313233343536373839414243444546007B
:101BF800303132333435363738396162636465667B
:011C080000DB
:101C0C007856341290000020000000000000000004
:101C1C00000000000102030406070809006CDC0246
:101C2C0000000000000000000000000000000000A8
:101C3C000000000000000000000000000000000098
:101C4C00D41B000800000000000000000000000091
:101C5C000000000000000000000000000000000078
:101C6C000000000000000000000000000000000068
:101C7C000000000000000000000000000000000058
:081C8C0020000020325476987C
:04000005080000C52A
:00000001FF
