:020000040800F2
:100000000020002085010008390500083B05000894
:1000100000000000000000000000000000000000E0
:100020000000000000000000000000003D05000886
:1000300000000000000000003F0500085505000812
:100040003D0200083D0200083D0200083D02000894
:100050003D0200083D0200083D0200083D02000884
:100060003D0200083D0200083D0200083D02000874
:100070003D0200083D0200083D0200083D02000864
:100080003D0200083D020008000000003D0200089B
:100090003D0200083D0200083D0200083D02000844
:1000A0003D0200083D0200083D0200083D02000834
:1000B0003D020008000000003D02000800000000B2
:1000C0005FF808F173B500F0DBF8002322482349FC
:1000D000234C1A188A4203D2E55804331560F8E716
:1000E0000021204B204A934201D202C3FBE700F0DB
:1000F000CBF801A9684600F0BBF81C4B00251E0098
:100100001B4CE41AA410AC4204DDAB00F358984732
:100110000135F8E7174B00251E00174CE41AA41010
:10012000AC4204DDAB00F35898470135F8E701997C
:10013000009800F013FA114B05001E00104CE41A51
:10014000A410002C04DD013CA300F3589847F8E705
:10015000280000F089F8C04600000020240000209C
:100160001809000824000020300000206802000860
:1001700068020008680200086802000868020008B7
:10018000680200082B480047FEE704207146084239
:1001900002D0EFF3098001E0EFF308807146264AB0
:1001A0001047FEE7FEE7FEE71D4A30B51368591E0B
:1001B00011601C49002B1ED11B4B1B88002B09D141
:1001C00080241A48A400838A63408382FA239B0018
:1001D000136010E0FF2B0ED0C8205B00013B0B80AA
:1001E000134B1860FA23DB00136080220F4B520080
:1001F0009A6192181A850B88002B0FD00C4A106850
:10020000441E1460002809D18025084C6D00A08A86
:10021000013B6840A082C8200B80106030BDC04602
:100220000C000020280000202600002000080048C4
:0E02300008000020C5000008A3010008FEE73A
:1002400018090008000000202400002018090008F8
:10025000000000000000000024000020300000200A
:08026000000000000000000096
:1002680010B500F011F8000001230360014B0B608A
:100278007047C0460000002010B500F013F810BD0C
:1002880010B500F08DF810BDBFF34F8F034A044B33
:10029800DA60BFF34F8FC046FDE7C0460400FA0599
:1002A80000ED00E00121364B82B01A680A431A605B
:1002B8005868344A02405A601868334A02401A6043
:1002C8001868324A02401A605868314A02400F20C2
:1002D8005A60DA6A8243DA62186B2E4A02401A635D
:1002E8005A6B80208A435A63002280219A600092C8
:1002F80001921A6849020A43A0211A608002C901C2
:100308001A6802400192009A01320092019A002A6A
:1003180002D1009A8A42F3D18022196892020A40D7
:1003280000D001220192019A012A27D111211A4AEB
:1003380011605A685A605A685A605968174A0A40E0
:1003480088215A605A6849030A4380215A601A680A
:1003580049040A4380211A6089041868084A084237
:10036800FBD0032051688143516051680138014333
:1003780051600C215A680A40082AFBD102B0704724
:10038800001002400CB8FF08FFFFF6FEFFFFFBFF5E
:10039800FFFFC0FFACFEFFFF00200240FF7FC0FF51
:1003A8000C2370B5134D144E6A681340042B01D00A
:1003B800082B02D0114B336013E0C0236C686A68C5
:1003C800A402240F5B0202341A4201D10C4806E051
:1003D8000F23E96A09481940013100F023F9444321
:1003E80034606B68074A1B061B0FD35C3268DA401F
:1003F800326070BD001002402000002000127A0018
:1004080000093D00100000208021074A09035369B4
:100418000B435361054A064B11680B40A021C902E2
:100428000B4313607047C0460010024000080048A4
:10043800FFFFF0FF8021074B89009A690A430121D9
:100448009A615A6B0A435A630222596B1142FCD0D3
:100458007047C046001002400121084B9A680A42C2
:1004680002D09A688A439A6080219A6809060A43EA
:100478009A609A68002AFCDB7047C0460024014055
:10048800A021094BC900DA680A43DA6080220721F3
:1004980092029A625A690A4380215A61034AC9033F
:1004A80013680B431360704700240140082701407C
:1004B8000121044B9A680A439A601A680A42F9D0E3
:1004C8007047C046002401400A4B9A68520703D57A
:1004D80010219A680A439A601022986805491042C8
:1004E800FBD102208A6802438A600122996811427E
:1004F800FCD17047002401408021094A49029369D0
:100508000B4320219361074B9A880A439A80064A35
:100518001F391A85054ADA621A880A431A80704711
:100528000010024000400140BF03000050C300001B
:100538007047FEE770477047034B1A68002A02D0DD
:100548001A68013A1A6070472C00002010B5FFF7AE
:10055800F3FF10BD2C4BF7B51888A52396215B0037
:100568005843490000F0E8F8050073206421684307
:1005780000F0E2F8040055206421684300F0DCF83C
:100588000500FFF741FFFFF755FFFFF765FFFFF78E
:100598008FFFFFF775FFFFF7AFFF042200201B4B0B
:1005A8001B4E9968A4B21143996031880093019653
:1005B800002913D1009B154E1F681742FAD0376CDB
:1005C800A74204D9366CAE4201D90120010080232C
:1005D800104F9B00BE8A5E40BE82E9E7002801D02A
:1005E800019B1980FFF770FFC0200B4A0B4B0C4989
:1005F80053600B6A00061B021B0A03430B620023AD
:10060800936007331360FEBDBAF7FF1F0024014053
:10061800260000200008004810E000E07FBB000032
:1006280000ED00E0002243088B4274D303098B429B
:100638005FD3030A8B4244D3030B8B4228D3030CAA
:100648008B420DD3FF22090212BA030C8B4202D34C
:100658001212090265D0030B8B4219D300E0090A74
:10066800C30B8B4201D3CB03C01A5241830B8B427D
:1006780001D38B03C01A5241430B8B4201D34B0366
:10068800C01A5241030B8B4201D30B03C01A5241CB
:10069800C30A8B4201D3CB02C01A5241830A8B4250
:1006A80001D38B02C01A5241430A8B4201D34B0239
:1006B800C01A5241030A8B4201D30B02C01A52419D
:1006C800CDD2C3098B4201D3CB01C01A5241830951
:1006D8008B4201D38B01C01A524143098B4201D38B
:1006E8004B01C01A524103098B4201D30B01C01AB6
:1006F8005241C3088B4201D3CB00C01A5241830830
:100708008B4201D38B00C01A524143088B4201D35C
:100718004B00C01A5241411A00D2014652411046BC
:100728007047FFE701B5002000F0F0F802BDC046B1
:100738000029F7D076E7704703460B437FD40022A1
:1007480043088B4274D303098B425FD3030A8B425D
:1007580044D3030B8B4228D3030C8B420DD3FF22C7
:10076800090212BA030C8B4202D31212090265D095
:10077800030B8B4219D300E0090AC30B8B4201D348
:10078800CB03C01A5241830B8B4201D38B03C01A8F
:100798005241430B8B4201D34B03C01A5241030B06
:1007A8008B4201D30B03C01A5241C30A8B4201D3B7
:1007B800CB02C01A5241830A8B4201D38B02C01A62
:1007C8005241430A8B4201D34B02C01A5241030AD9
:1007D8008B4201D30B02C01A5241CDD2C3098B42BE
:1007E80001D3CB01C01A524183098B4201D38B013B
:1007F800C01A524143098B4201D34B01C01A5241DE
:1008080003098B4201D30B01C01A5241C3088B4222
:1008180001D3CB00C01A524183088B4201D38B000D
:10082800C01A524143088B4201D34B00C01A5241AF
:10083800411A00D201465241104670475DE0CA0F86
:1008480000D04942031000D34042534000229C4646
:1008580003098B422DD3030A8B4212D3FC22890150
:1008680012BA030A8B420CD3890192118B4208D326
:10087800890192118B4204D389013AD0921100E088
:100888008909C3098B4201D3CB01C01A524183099C
:100898008B4201D38B01C01A524143098B4201D3C9
:1008A8004B01C01A524103098B4201D30B01C01AF4
:1008B8005241C3088B4201D3CB00C01A524183086E
:1008C8008B4201D38B00C01A5241D9D243088B42C4
:1008D80001D34B00C01A5241411A00D20146634667
:1008E80052415B10104601D34042002B00D54942CB
:1008F800704763465B1000D3404201B5002000F00A
:1009080005F802BD0029F8D016E770477047C046C1
:100918002400002000000000C8000000E8030000D8
:100928000000000000000000010203040607080997
:04093800006CDC0271
:04000005080000C52A
:00000001FF
