:020000040800F2
:1000000000200020850100081D0500081F050008CC
:1000100000000000000000000000000000000000E0
:1000200000000000000000000000000021050008A2
:10003000000000000000000023050008AD050008D6
:10004000B5010008B5010008B5010008B5010008B8
:10005000B501000825050008B5010008B501000834
:10006000B5010008B5010008B5010008B501000898
:10007000B5010008B5010008B5010008B501000888
:10008000B5010008B501000800000000B501000836
:10009000B5010008B5010008B501000851050008C8
:1000A000B5010008B5010008B5010008B501000858
:1000B000B501000800000000B501000800000000C4
:1000C0005FF808F173B500F097F800232248234940
:1000D000234C1A188A4203D2E55804331560F8E716
:1000E0000021204B204A934201D202C3FBE700F0DB
:1000F00087F801A9684600F077F81C4B00251E0020
:100100001B4CE41AA410AC4204DDAB00F358984732
:100110000135F8E7174B00251E00174CE41AA41010
:10012000AC4204DDAB00F35898470135F8E701997C
:10013000009800F03FFA114B05001E00104CE41A25
:10014000A410002C04DD013CA300F3589847F8E705
:10015000280000F045F8C046000000201C000020E8
:10016000EC0600081C00002024000020E00100082C
:10017000E0010008E0010008E0010008E0010008DB
:10018000E001000809480047FEE7042071460842E4
:1001900002D0EFF3098001E0EFF308807146044AD2
:1001A0001047FEE7FEE7FEE770470000C5000008C5
:0601B000A3010008FEE7B8
:1001B800EC060008000000201C000020EC060008E7
:1001C80000000000000000001C00002024000020A7
:0801D80000000000000000001F
:1001E00010B500F011F8000001230360014B0B6013
:1001F0007047C0460000002010B500F013F810BD95
:1002000010B500F08DF810BDBFF34F8F034A044BBB
:10021000DA60BFF34F8FC046FDE7C0460400FA0521
:1002200000ED00E00121364B82B01A680A431A60E3
:100230005868344A02405A601868334A02401A60CB
:100240001868324A02401A605868314A02400F204A
:100250005A60DA6A8243DA62186B2E4A02401A63E5
:100260005A6B80208A435A63002280219A60009250
:1002700001921A6849020A43A0211A608002C9014A
:100280001A6802400192009A01320092019A002AF3
:1002900002D1009A8A42F3D18022196892020A4060
:1002A00000D001220192019A012A27D111211A4A74
:1002B00011605A685A605A685A605968174A0A4069
:1002C00088215A605A6849030A4380215A601A6893
:1002D00049040A4380211A6089041868084A0842C0
:1002E000FBD00320516881435160516801380143BC
:1002F00051600C215A680A40082AFBD102B07047AD
:10030000001002400CB8FF08FFFFF6FEFFFFFBFFE6
:10031000FFFFC0FFACFEFFFF00200240FF7FC0FFD9
:100320000C2370B5134D144E6A681340042B01D092
:10033000082B02D0114B336013E0C0236C686A684D
:10034000A402240F5B0202341A4201D10C4806E0D9
:100350000F23E96A09481940013100F03BF9444391
:1003600034606B68074A1B061B0FD35C3268DA40A7
:10037000326070BD001002401800002000127A00A8
:1003800000093D00080000208021074A0903536945
:100390000B435361054A064B11680B40A021C9026B
:1003A0000B4313607047C04600100240000800482D
:1003B000FFFFF0FF80210C4AC90253690B43C021A3
:1003C00053610A4A93880B4388219380136A490535
:1003D0001B021B0A0B4313621168054B0B40A02143
:1003E00009020B43136070470010024000040048EC
:1003F000FF0FFFFF8021114B8903DA690A431021A7
:10040000DA611A6B0A431A63B0220D4B12041A61A7
:100410000D221A609A68A4310A4380219A609A6872
:1004200009020A43C5219A60064A890053581B02F3
:100430001B0A535080231B041360704700100240B6
:100440000054004000E100E080210D4AC9025369D8
:100450000B43C02153610B4B09019A880A439A80D0
:10046000596A094A0A40882149010A435A621968AF
:10047000064A0A40A02109040A431A607047C04690
:100480000010024000040048FF00FFFFFFFF0FFFC5
:100490008021064AC903D3690B43D361044B054A43
:1004A0001A6101221A60044A5A6070470010024023
:1004B000005800404B1AB000B40001028021064AE7
:1004C000890253690B43536190220321D2051368BB
:1004D0008B4313607047C046001002400F2101207B
:1004E0000A4A93688B439360094B1968014319606A
:1004F000C1219A68890002439A60064B064A5858FF
:1005000002405A5020221A607047C0460000014045
:100510000004014000E100E0FF00FFFF7047FEE73C
:1005200070477047012208494B6913434B61074BE1
:100530009969114206D08021A4329A625A688901D1
:100540000A435A607047C04600040140005800400A
:1005500008200E4B9969014203D0DA690243DA613F
:1005600013E04A0709D55B6AA52B0ED18021084A02
:100570008900938A4B40938207E08022044B52000B
:100580009A618022034B1204DA67704700540040DE
:100590000008004804E100E0034B1A68002A02D07A
:1005A0001A68013A1A6070472000002010B5FFF762
:1005B000F3FF10BD10B5FFF7E7FEFFF7FBFEFFF7F7
:1005C00019FFFFF741FFFFF763FFFFF777FFFFF723
:1005D00085FFFEE7002243088B4274D303098B4258
:1005E0005FD3030A8B4244D3030B8B4228D3030C03
:1005F0008B420DD3FF22090212BA030C8B4202D3A5
:100600001212090265D0030B8B4219D300E0090ACC
:10061000C30B8B4201D3CB03C01A5241830B8B42D5
:1006200001D38B03C01A5241430B8B4201D34B03BE
:10063000C01A5241030B8B4201D30B03C01A524123
:10064000C30A8B4201D3CB02C01A5241830A8B42A8
:1006500001D38B02C01A5241430A8B4201D34B0291
:10066000C01A5241030A8B4201D30B02C01A5241F5
:10067000CDD2C3098B4201D3CB01C01A52418309A9
:100680008B4201D38B01C01A524143098B4201D3E3
:100690004B01C01A524103098B4201D30B01C01A0E
:1006A0005241C3088B4201D3CB00C01A5241830888
:1006B0008B4201D38B00C01A524143088B4201D3B5
:1006C0004B00C01A5241411A00D201465241104615
:1006D0007047FFE701B5002000F006F802BDC046F4
:0C06E0000029F7D076E770477047C0464D
:1006EC001C000020000000000000000000000000C2
:0C06FC000102030406070809006CDC0280
:04000005080000C52A
:00000001FF
